:1000000035C042C041C040C03FC03EC03DC03CC002
:100010003BC03BC0AE2000B0C8001040813FA1A64D
:10002000A82FA4D300D5F0D922DA12DB208D14AF8B
:10003000003E5149453E0000427F40000042615170
:100040004946002141454B31001814127F1000270A
:1000500045454539003C4A494930000171090503CD
:1000600000364949493600064949291E11241FBE58
:10007000CFE9CDBF20E0A0E6B0E001C01D92A636DA
:10008000B207E1F7F8D098C1BBCF1F920F920FB61D
:100090000F9211242F933F935F936F937F938F93CE
:1000A0009F93AF93BF93209162003091630084B11E
:1000B00095B167E270E05BD163E670E069D1260F2D
:1000C000371F309363002093620080916400909109
:1000D000650001969093650080936400BF91AF9195
:1000E0009F918F917F916F915F913F912F910F9091
:1000F0000FBE0F901F901895C29AC09AC098C298D0
:100100000895C298C098C29AC09A089520E030E03D
:1001100090E0AC01022E01C0440F0A94EAF747FFB9
:1001200002C0C09A01C0C098C29AC2982F5F3F4FC8
:100130002830310571F7C09AC29AC2980895DCDF61
:1001400088E7E4DF80E0E2CFDCCFCF93DF931F923C
:10015000CDB7DD278983F3DF8981D8DF0F90DF9169
:10016000CF91CFCFC9DF88E7D1DF80E4CFCFC9CF30
:100170001F93CF93DF93B89ABA9AC4E1D0E01C2FB3
:10018000145EFE018491E1DF21961C13FACFDF910A
:10019000CF911F9108951F93CF93DF931F92CDB7F7
:1001A000DD27182F6983CBDF698180EB860FAEDFF7
:1001B000812F82958F708061A9DF812F8F70A6DFDC
:1001C0000F90DF91CF911F919CCFEF92FF920F93F1
:1001D0001F93CF93DF93E82EF62E042F122F60E0AB
:1001E00080E0D9DFBFDFC0E0D1E08E2D8FDF8F2D23
:1001F0008DDF802F8BDF812F89DF2197B1F7DF9192
:10020000CF911F910F91FF90EF907BCFEF92FF92D4
:100210000F931F93CF93DF931F92CDB7DD27898371
:10022000A1DF8981805390E066E070E0A0D08C016E
:10023000E12CF12CF701E00FF11FE05DFF4F8491FD
:1002400065DF8FEFE81AF80A86E0E816F10491F707
:100250000F90DF91CF911F910F91FF90EF9051CFB1
:10026000CF93DF93EC018991882311F0CFDFFBCF8F
:10027000DF91CF910895CF93DF93CDB7DD27C350A2
:10028000CDBF8FE097E20197F1F700C0000070DF6B
:100290008FE097E20197F1F700C0000020E040E016
:1002A00060E080E092DF87E087BB18BA87B18360A7
:1002B00087B986B18E6886B9479AA39A78940AE07E
:1002C00010E084E6E82EF12C90E3D92E369A809146
:1002D0006400909165008D329140C0F3809162007E
:1002E00090916300609164007091650051D07093AB
:1002F000610060936000109265001092640010929B
:1003000063001092620083ED90E30197F1F700C063
:1003100000008091600090916100B80139D0805D4B
:100320008B838091600090916100B80131D0CB0146
:10033000B8012ED0805D8A83809160009091610029
:100340008436910510F4D9820BC0809160009091A1
:100350006100B7011DD0CB01B8011AD0805D89833F
:1003600068E088E218DFCE0101967ADFAFCF002483
:10037000552704C0080E591F880F991F009729F0B0
:1003800076956795B8F37105B9F7802D952F089587
:10039000AA1BBB1B51E107C0AA1FBB1FA617B707AB
:1003A00010F0A61BB70B881F991F5A95A9F78095C7
:0C03B0009095BC01CD010895F894FFCF9A
:00000001FF
